{
  "contractName": "KoyaNft",
  "abi": [
    {
      "inputs": [],
      "stateMutability": "nonpayable",
      "type": "constructor"
    },
    {
      "anonymous": false,
      "inputs": [
        {
          "indexed": true,
          "internalType": "address",
          "name": "owner",
          "type": "address"
        },
        {
          "indexed": true,
          "internalType": "address",
          "name": "approved",
          "type": "address"
        },
        {
          "indexed": true,
          "internalType": "uint256",
          "name": "tokenId",
          "type": "uint256"
        }
      ],
      "name": "Approval",
      "type": "event"
    },
    {
      "anonymous": false,
      "inputs": [
        {
          "indexed": true,
          "internalType": "address",
          "name": "owner",
          "type": "address"
        },
        {
          "indexed": true,
          "internalType": "address",
          "name": "operator",
          "type": "address"
        },
        {
          "indexed": false,
          "internalType": "bool",
          "name": "approved",
          "type": "bool"
        }
      ],
      "name": "ApprovalForAll",
      "type": "event"
    },
    {
      "anonymous": false,
      "inputs": [
        {
          "indexed": true,
          "internalType": "address",
          "name": "from",
          "type": "address"
        },
        {
          "indexed": true,
          "internalType": "address",
          "name": "to",
          "type": "address"
        },
        {
          "indexed": true,
          "internalType": "uint256",
          "name": "tokenId",
          "type": "uint256"
        }
      ],
      "name": "Transfer",
      "type": "event"
    },
    {
      "inputs": [
        {
          "internalType": "uint256",
          "name": "",
          "type": "uint256"
        }
      ],
      "name": "allTokens",
      "outputs": [
        {
          "internalType": "uint256",
          "name": "tokenId",
          "type": "uint256"
        },
        {
          "internalType": "string",
          "name": "tokenName",
          "type": "string"
        },
        {
          "internalType": "address",
          "name": "owner",
          "type": "address"
        }
      ],
      "stateMutability": "view",
      "type": "function"
    },
    {
      "inputs": [
        {
          "internalType": "address",
          "name": "to",
          "type": "address"
        },
        {
          "internalType": "uint256",
          "name": "tokenId",
          "type": "uint256"
        }
      ],
      "name": "approve",
      "outputs": [],
      "stateMutability": "nonpayable",
      "type": "function"
    },
    {
      "inputs": [
        {
          "internalType": "address",
          "name": "owner",
          "type": "address"
        }
      ],
      "name": "balanceOf",
      "outputs": [
        {
          "internalType": "uint256",
          "name": "",
          "type": "uint256"
        }
      ],
      "stateMutability": "view",
      "type": "function"
    },
    {
      "inputs": [
        {
          "internalType": "uint256",
          "name": "tokenId",
          "type": "uint256"
        }
      ],
      "name": "getApproved",
      "outputs": [
        {
          "internalType": "address",
          "name": "",
          "type": "address"
        }
      ],
      "stateMutability": "view",
      "type": "function"
    },
    {
      "inputs": [
        {
          "internalType": "address",
          "name": "owner",
          "type": "address"
        },
        {
          "internalType": "address",
          "name": "operator",
          "type": "address"
        }
      ],
      "name": "isApprovedForAll",
      "outputs": [
        {
          "internalType": "bool",
          "name": "",
          "type": "bool"
        }
      ],
      "stateMutability": "view",
      "type": "function"
    },
    {
      "inputs": [],
      "name": "name",
      "outputs": [
        {
          "internalType": "string",
          "name": "",
          "type": "string"
        }
      ],
      "stateMutability": "view",
      "type": "function"
    },
    {
      "inputs": [],
      "name": "owner",
      "outputs": [
        {
          "internalType": "address",
          "name": "",
          "type": "address"
        }
      ],
      "stateMutability": "view",
      "type": "function"
    },
    {
      "inputs": [
        {
          "internalType": "uint256",
          "name": "tokenId",
          "type": "uint256"
        }
      ],
      "name": "ownerOf",
      "outputs": [
        {
          "internalType": "address",
          "name": "",
          "type": "address"
        }
      ],
      "stateMutability": "view",
      "type": "function"
    },
    {
      "inputs": [
        {
          "internalType": "address",
          "name": "from",
          "type": "address"
        },
        {
          "internalType": "address",
          "name": "to",
          "type": "address"
        },
        {
          "internalType": "uint256",
          "name": "tokenId",
          "type": "uint256"
        }
      ],
      "name": "safeTransferFrom",
      "outputs": [],
      "stateMutability": "nonpayable",
      "type": "function"
    },
    {
      "inputs": [
        {
          "internalType": "address",
          "name": "from",
          "type": "address"
        },
        {
          "internalType": "address",
          "name": "to",
          "type": "address"
        },
        {
          "internalType": "uint256",
          "name": "tokenId",
          "type": "uint256"
        },
        {
          "internalType": "bytes",
          "name": "data",
          "type": "bytes"
        }
      ],
      "name": "safeTransferFrom",
      "outputs": [],
      "stateMutability": "nonpayable",
      "type": "function"
    },
    {
      "inputs": [
        {
          "internalType": "address",
          "name": "operator",
          "type": "address"
        },
        {
          "internalType": "bool",
          "name": "approved",
          "type": "bool"
        }
      ],
      "name": "setApprovalForAll",
      "outputs": [],
      "stateMutability": "nonpayable",
      "type": "function"
    },
    {
      "inputs": [
        {
          "internalType": "bytes4",
          "name": "interfaceId",
          "type": "bytes4"
        }
      ],
      "name": "supportsInterface",
      "outputs": [
        {
          "internalType": "bool",
          "name": "",
          "type": "bool"
        }
      ],
      "stateMutability": "view",
      "type": "function"
    },
    {
      "inputs": [],
      "name": "symbol",
      "outputs": [
        {
          "internalType": "string",
          "name": "",
          "type": "string"
        }
      ],
      "stateMutability": "view",
      "type": "function"
    },
    {
      "inputs": [
        {
          "internalType": "address",
          "name": "",
          "type": "address"
        },
        {
          "internalType": "uint256",
          "name": "",
          "type": "uint256"
        }
      ],
      "name": "tokenAddress",
      "outputs": [
        {
          "internalType": "uint256",
          "name": "tokenId",
          "type": "uint256"
        },
        {
          "internalType": "string",
          "name": "tokenName",
          "type": "string"
        },
        {
          "internalType": "address",
          "name": "owner",
          "type": "address"
        }
      ],
      "stateMutability": "view",
      "type": "function"
    },
    {
      "inputs": [
        {
          "internalType": "string",
          "name": "",
          "type": "string"
        }
      ],
      "name": "tokenExists",
      "outputs": [
        {
          "internalType": "bool",
          "name": "",
          "type": "bool"
        }
      ],
      "stateMutability": "view",
      "type": "function"
    },
    {
      "inputs": [
        {
          "internalType": "uint256",
          "name": "tokenId",
          "type": "uint256"
        }
      ],
      "name": "tokenURI",
      "outputs": [
        {
          "internalType": "string",
          "name": "",
          "type": "string"
        }
      ],
      "stateMutability": "view",
      "type": "function"
    },
    {
      "inputs": [
        {
          "internalType": "address",
          "name": "from",
          "type": "address"
        },
        {
          "internalType": "address",
          "name": "to",
          "type": "address"
        },
        {
          "internalType": "uint256",
          "name": "tokenId",
          "type": "uint256"
        }
      ],
      "name": "transferFrom",
      "outputs": [],
      "stateMutability": "nonpayable",
      "type": "function"
    },
    {
      "inputs": [],
      "name": "getAllTokens",
      "outputs": [
        {
          "components": [
            {
              "internalType": "uint256",
              "name": "tokenId",
              "type": "uint256"
            },
            {
              "internalType": "string",
              "name": "tokenName",
              "type": "string"
            },
            {
              "internalType": "address",
              "name": "owner",
              "type": "address"
            }
          ],
          "internalType": "struct KoyaNft.Koya[]",
          "name": "",
          "type": "tuple[]"
        }
      ],
      "stateMutability": "view",
      "type": "function"
    },
    {
      "inputs": [],
      "name": "getMyTokens",
      "outputs": [
        {
          "components": [
            {
              "internalType": "uint256",
              "name": "tokenId",
              "type": "uint256"
            },
            {
              "internalType": "string",
              "name": "tokenName",
              "type": "string"
            },
            {
              "internalType": "address",
              "name": "owner",
              "type": "address"
            }
          ],
          "internalType": "struct KoyaNft.Koya[]",
          "name": "",
          "type": "tuple[]"
        }
      ],
      "stateMutability": "view",
      "type": "function"
    },
    {
      "inputs": [
        {
          "internalType": "string",
          "name": "_tokenName",
          "type": "string"
        }
      ],
      "name": "mintToken",
      "outputs": [],
      "stateMutability": "payable",
      "type": "function"
    }
  ],
  "bytecode": "0x608060405260016007553480156200001657600080fd5b506040518060400160405280600781526020017f4b6f79614e6674000000000000000000000000000000000000000000000000008152506040518060400160405280600381526020017f4b594e000000000000000000000000000000000000000000000000000000000081525081600090816200009491906200036a565b508060019081620000a691906200036a565b50505033600660006101000a81548173ffffffffffffffffffffffffffffffffffffffff021916908373ffffffffffffffffffffffffffffffffffffffff16021790555062000451565b600081519050919050565b7f4e487b7100000000000000000000000000000000000000000000000000000000600052604160045260246000fd5b7f4e487b7100000000000000000000000000000000000000000000000000000000600052602260045260246000fd5b600060028204905060018216806200017257607f821691505b6020821081036200018857620001876200012a565b5b50919050565b60008190508160005260206000209050919050565b60006020601f8301049050919050565b600082821b905092915050565b600060088302620001f27fffffffffffffffffffffffffffffffffffffffffffffffffffffffffffffffff82620001b3565b620001fe8683620001b3565b95508019841693508086168417925050509392505050565b6000819050919050565b6000819050919050565b60006200024b620002456200023f8462000216565b62000220565b62000216565b9050919050565b6000819050919050565b62000267836200022a565b6200027f620002768262000252565b848454620001c0565b825550505050565b600090565b6200029662000287565b620002a38184846200025c565b505050565b5b81811015620002cb57620002bf6000826200028c565b600181019050620002a9565b5050565b601f8211156200031a57620002e4816200018e565b620002ef84620001a3565b81016020851015620002ff578190505b620003176200030e85620001a3565b830182620002a8565b50505b505050565b600082821c905092915050565b60006200033f600019846008026200031f565b1980831691505092915050565b60006200035a83836200032c565b9150826002028217905092915050565b6200037582620000f0565b67ffffffffffffffff811115620003915762000390620000fb565b5b6200039d825462000159565b620003aa828285620002cf565b600060209050601f831160018114620003e25760008415620003cd578287015190505b620003d985826200034c565b86555062000449565b601f198416620003f2866200018e565b60005b828110156200041c57848901518255600182019150602085019450602081019050620003f5565b868310156200043c578489015162000438601f8916826200032c565b8355505b6001600288020188555050505b505050505050565b6137a580620004616000396000f3fe60806040526004361061011f5760003560e01c8063634282af116100a0578063a22cb46511610064578063a22cb46514610402578063b88d4fde1461042b578063c87b56dd14610454578063e985e9c514610491578063e985ed21146104ce5761011f565b8063634282af146102f35780636352211e1461033257806370a082311461036f5780638da5cb5b146103ac57806395d89b41146103d75761011f565b80632a5c792a116100e75780632a5c792a1461021b57806333eba49a1461024657806342842e0e146102625780635b3b136a1461028b5780636059eae1146102b65761011f565b806301ffc9a71461012457806306fdde0314610161578063081812fc1461018c578063095ea7b3146101c957806323b872dd146101f2575b600080fd5b34801561013057600080fd5b5061014b60048036038101906101469190612329565b61050d565b6040516101589190612371565b60405180910390f35b34801561016d57600080fd5b506101766105ef565b604051610183919061241c565b60405180910390f35b34801561019857600080fd5b506101b360048036038101906101ae9190612474565b610681565b6040516101c091906124e2565b60405180910390f35b3480156101d557600080fd5b506101f060048036038101906101eb9190612529565b6106c7565b005b3480156101fe57600080fd5b5061021960048036038101906102149190612569565b6107de565b005b34801561022757600080fd5b5061023061083e565b60405161023d9190612736565b60405180910390f35b610260600480360381019061025b91906127bd565b61098f565b005b34801561026e57600080fd5b5061028960048036038101906102849190612569565b610cb1565b005b34801561029757600080fd5b506102a0610cd1565b6040516102ad9190612736565b60405180910390f35b3480156102c257600080fd5b506102dd60048036038101906102d8919061293a565b610e5f565b6040516102ea9190612371565b60405180910390f35b3480156102ff57600080fd5b5061031a60048036038101906103159190612474565b610e95565b60405161032993929190612992565b60405180910390f35b34801561033e57600080fd5b5061035960048036038101906103549190612474565b610f77565b60405161036691906124e2565b60405180910390f35b34801561037b57600080fd5b50610396600480360381019061039191906129d0565b610ffd565b6040516103a391906129fd565b60405180910390f35b3480156103b857600080fd5b506103c16110b4565b6040516103ce91906124e2565b60405180910390f35b3480156103e357600080fd5b506103ec6110da565b6040516103f9919061241c565b60405180910390f35b34801561040e57600080fd5b5061042960048036038101906104249190612a44565b61116c565b005b34801561043757600080fd5b50610452600480360381019061044d9190612b25565b611182565b005b34801561046057600080fd5b5061047b60048036038101906104769190612474565b6111e4565b604051610488919061241c565b60405180910390f35b34801561049d57600080fd5b506104b860048036038101906104b39190612ba8565b61124c565b6040516104c59190612371565b60405180910390f35b3480156104da57600080fd5b506104f560048036038101906104f09190612529565b6112e0565b60405161050493929190612992565b60405180910390f35b60007f80ac58cd000000000000000000000000000000000000000000000000000000007bffffffffffffffffffffffffffffffffffffffffffffffffffffffff1916827bffffffffffffffffffffffffffffffffffffffffffffffffffffffff191614806105d857507f5b5e139f000000000000000000000000000000000000000000000000000000007bffffffffffffffffffffffffffffffffffffffffffffffffffffffff1916827bffffffffffffffffffffffffffffffffffffffffffffffffffffffff1916145b806105e857506105e7826113cf565b5b9050919050565b6060600080546105fe90612c17565b80601f016020809104026020016040519081016040528092919081815260200182805461062a90612c17565b80156106775780601f1061064c57610100808354040283529160200191610677565b820191906000526020600020905b81548152906001019060200180831161065a57829003601f168201915b5050505050905090565b600061068c82611439565b6004600083815260200190815260200160002060009054906101000a900473ffffffffffffffffffffffffffffffffffffffff169050919050565b60006106d282610f77565b90508073ffffffffffffffffffffffffffffffffffffffff168373ffffffffffffffffffffffffffffffffffffffff1603610742576040517f08c379a000000000000000000000000000000000000000000000000000000000815260040161073990612cba565b60405180910390fd5b8073ffffffffffffffffffffffffffffffffffffffff16610761611484565b73ffffffffffffffffffffffffffffffffffffffff161480610790575061078f8161078a611484565b61124c565b5b6107cf576040517f08c379a00000000000000000000000000000000000000000000000000000000081526004016107c690612d4c565b60405180910390fd5b6107d9838361148c565b505050565b6107ef6107e9611484565b82611545565b61082e576040517f08c379a000000000000000000000000000000000000000000000000000000000815260040161082590612dde565b60405180910390fd5b6108398383836115da565b505050565b60606008805480602002602001604051908101604052809291908181526020016000905b8282101561098657838290600052602060002090600302016040518060600160405290816000820154815260200160018201805461089f90612c17565b80601f01602080910402602001604051908101604052809291908181526020018280546108cb90612c17565b80156109185780601f106108ed57610100808354040283529160200191610918565b820191906000526020600020905b8154815290600101906020018083116108fb57829003601f168201915b505050505081526020016002820160009054906101000a900473ffffffffffffffffffffffffffffffffffffffff1673ffffffffffffffffffffffffffffffffffffffff1673ffffffffffffffffffffffffffffffffffffffff168152505081526020019060010190610862565b50505050905090565b600a82826040516109a1929190612e2e565b908152602001604051809103902060009054906101000a900460ff16156109fd576040517f08c379a00000000000000000000000000000000000000000000000000000000081526004016109f490612e93565b60405180910390fd5b610a09336007546118d3565b60086040518060600160405280600754815260200184848080601f016020809104026020016040519081016040528093929190818152602001838380828437600081840152601f19601f8201169050808301925050505050505081526020013373ffffffffffffffffffffffffffffffffffffffff168152509080600181540180825580915050600190039060005260206000209060030201600090919091909150600082015181600001556020820151816001019081610aca919061305f565b5060408201518160020160006101000a81548173ffffffffffffffffffffffffffffffffffffffff021916908373ffffffffffffffffffffffffffffffffffffffff1602179055505050600960003373ffffffffffffffffffffffffffffffffffffffff1673ffffffffffffffffffffffffffffffffffffffff1681526020019081526020016000206040518060600160405280600754815260200184848080601f016020809104026020016040519081016040528093929190818152602001838380828437600081840152601f19601f8201169050808301925050505050505081526020013373ffffffffffffffffffffffffffffffffffffffff168152509080600181540180825580915050600190039060005260206000209060030201600090919091909150600082015181600001556020820151816001019081610c12919061305f565b5060408201518160020160006101000a81548173ffffffffffffffffffffffffffffffffffffffff021916908373ffffffffffffffffffffffffffffffffffffffff16021790555050506001600a8383604051610c70929190612e2e565b908152602001604051809103902060006101000a81548160ff02191690831515021790555060076000815480929190610ca890613160565b91905055505050565b610ccc83838360405180602001604052806000815250611182565b505050565b6060600960003373ffffffffffffffffffffffffffffffffffffffff1673ffffffffffffffffffffffffffffffffffffffff168152602001908152602001600020805480602002602001604051908101604052809291908181526020016000905b82821015610e56578382906000526020600020906003020160405180606001604052908160008201548152602001600182018054610d6f90612c17565b80601f0160208091040260200160405190810160405280929190818152602001828054610d9b90612c17565b8015610de85780601f10610dbd57610100808354040283529160200191610de8565b820191906000526020600020905b815481529060010190602001808311610dcb57829003601f168201915b505050505081526020016002820160009054906101000a900473ffffffffffffffffffffffffffffffffffffffff1673ffffffffffffffffffffffffffffffffffffffff1673ffffffffffffffffffffffffffffffffffffffff168152505081526020019060010190610d32565b50505050905090565b600a818051602081018201805184825260208301602085012081835280955050505050506000915054906101000a900460ff1681565b60088181548110610ea557600080fd5b9060005260206000209060030201600091509050806000015490806001018054610ece90612c17565b80601f0160208091040260200160405190810160405280929190818152602001828054610efa90612c17565b8015610f475780601f10610f1c57610100808354040283529160200191610f47565b820191906000526020600020905b815481529060010190602001808311610f2a57829003601f168201915b5050505050908060020160009054906101000a900473ffffffffffffffffffffffffffffffffffffffff16905083565b600080610f83836118f1565b9050600073ffffffffffffffffffffffffffffffffffffffff168173ffffffffffffffffffffffffffffffffffffffff1603610ff4576040517f08c379a0000000000000000000000000000000000000000000000000000000008152600401610feb906131f4565b60405180910390fd5b80915050919050565b60008073ffffffffffffffffffffffffffffffffffffffff168273ffffffffffffffffffffffffffffffffffffffff160361106d576040517f08c379a000000000000000000000000000000000000000000000000000000000815260040161106490613286565b60405180910390fd5b600360008373ffffffffffffffffffffffffffffffffffffffff1673ffffffffffffffffffffffffffffffffffffffff168152602001908152602001600020549050919050565b600660009054906101000a900473ffffffffffffffffffffffffffffffffffffffff1681565b6060600180546110e990612c17565b80601f016020809104026020016040519081016040528092919081815260200182805461111590612c17565b80156111625780601f1061113757610100808354040283529160200191611162565b820191906000526020600020905b81548152906001019060200180831161114557829003601f168201915b5050505050905090565b61117e611177611484565b838361192e565b5050565b61119361118d611484565b83611545565b6111d2576040517f08c379a00000000000000000000000000000000000000000000000000000000081526004016111c990612dde565b60405180910390fd5b6111de84848484611a9a565b50505050565b60606111ef82611439565b60006111f9611af6565b905060008151116112195760405180602001604052806000815250611244565b8061122384611b0d565b6040516020016112349291906132d7565b6040516020818303038152906040525b915050919050565b6000600560008473ffffffffffffffffffffffffffffffffffffffff1673ffffffffffffffffffffffffffffffffffffffff16815260200190815260200160002060008373ffffffffffffffffffffffffffffffffffffffff1673ffffffffffffffffffffffffffffffffffffffff16815260200190815260200160002060009054906101000a900460ff16905092915050565b600960205281600052604060002081815481106112fc57600080fd5b90600052602060002090600302016000915091505080600001549080600101805461132690612c17565b80601f016020809104026020016040519081016040528092919081815260200182805461135290612c17565b801561139f5780601f106113745761010080835404028352916020019161139f565b820191906000526020600020905b81548152906001019060200180831161138257829003601f168201915b5050505050908060020160009054906101000a900473ffffffffffffffffffffffffffffffffffffffff16905083565b60007f01ffc9a7000000000000000000000000000000000000000000000000000000007bffffffffffffffffffffffffffffffffffffffffffffffffffffffff1916827bffffffffffffffffffffffffffffffffffffffffffffffffffffffff1916149050919050565b61144281611bdb565b611481576040517f08c379a0000000000000000000000000000000000000000000000000000000008152600401611478906131f4565b60405180910390fd5b50565b600033905090565b816004600083815260200190815260200160002060006101000a81548173ffffffffffffffffffffffffffffffffffffffff021916908373ffffffffffffffffffffffffffffffffffffffff160217905550808273ffffffffffffffffffffffffffffffffffffffff166114ff83610f77565b73ffffffffffffffffffffffffffffffffffffffff167f8c5be1e5ebec7d5bd14f71427d1e84f3dd0314c0f7b2291e5b200ac8c7c3b92560405160405180910390a45050565b60008061155183610f77565b90508073ffffffffffffffffffffffffffffffffffffffff168473ffffffffffffffffffffffffffffffffffffffff1614806115935750611592818561124c565b5b806115d157508373ffffffffffffffffffffffffffffffffffffffff166115b984610681565b73ffffffffffffffffffffffffffffffffffffffff16145b91505092915050565b8273ffffffffffffffffffffffffffffffffffffffff166115fa82610f77565b73ffffffffffffffffffffffffffffffffffffffff1614611650576040517f08c379a00000000000000000000000000000000000000000000000000000000081526004016116479061336d565b60405180910390fd5b600073ffffffffffffffffffffffffffffffffffffffff168273ffffffffffffffffffffffffffffffffffffffff16036116bf576040517f08c379a00000000000000000000000000000000000000000000000000000000081526004016116b6906133ff565b60405180910390fd5b6116cc8383836001611c1c565b8273ffffffffffffffffffffffffffffffffffffffff166116ec82610f77565b73ffffffffffffffffffffffffffffffffffffffff1614611742576040517f08c379a00000000000000000000000000000000000000000000000000000000081526004016117399061336d565b60405180910390fd5b6004600082815260200190815260200160002060006101000a81549073ffffffffffffffffffffffffffffffffffffffff02191690556001600360008573ffffffffffffffffffffffffffffffffffffffff1673ffffffffffffffffffffffffffffffffffffffff168152602001908152602001600020600082825403925050819055506001600360008473ffffffffffffffffffffffffffffffffffffffff1673ffffffffffffffffffffffffffffffffffffffff16815260200190815260200160002060008282540192505081905550816002600083815260200190815260200160002060006101000a81548173ffffffffffffffffffffffffffffffffffffffff021916908373ffffffffffffffffffffffffffffffffffffffff160217905550808273ffffffffffffffffffffffffffffffffffffffff168473ffffffffffffffffffffffffffffffffffffffff167fddf252ad1be2c89b69c2b068fc378daa952ba7f163c4a11628f55a4df523b3ef60405160405180910390a46118ce8383836001611d42565b505050565b6118ed828260405180602001604052806000815250611d48565b5050565b60006002600083815260200190815260200160002060009054906101000a900473ffffffffffffffffffffffffffffffffffffffff169050919050565b8173ffffffffffffffffffffffffffffffffffffffff168373ffffffffffffffffffffffffffffffffffffffff160361199c576040517f08c379a00000000000000000000000000000000000000000000000000000000081526004016119939061346b565b60405180910390fd5b80600560008573ffffffffffffffffffffffffffffffffffffffff1673ffffffffffffffffffffffffffffffffffffffff16815260200190815260200160002060008473ffffffffffffffffffffffffffffffffffffffff1673ffffffffffffffffffffffffffffffffffffffff16815260200190815260200160002060006101000a81548160ff0219169083151502179055508173ffffffffffffffffffffffffffffffffffffffff168373ffffffffffffffffffffffffffffffffffffffff167f17307eab39ab6107e8899845ad3d59bd9653f200f220920489ca2b5937696c3183604051611a8d9190612371565b60405180910390a3505050565b611aa58484846115da565b611ab184848484611da3565b611af0576040517f08c379a0000000000000000000000000000000000000000000000000000000008152600401611ae7906134fd565b60405180910390fd5b50505050565b606060405180602001604052806000815250905090565b606060006001611b1c84611f2a565b01905060008167ffffffffffffffff811115611b3b57611b3a61280f565b5b6040519080825280601f01601f191660200182016040528015611b6d5781602001600182028036833780820191505090505b509050600082602001820190505b600115611bd0578080600190039150507f3031323334353637383961626364656600000000000000000000000000000000600a86061a8153600a8581611bc457611bc361351d565b5b04945060008503611b7b575b819350505050919050565b60008073ffffffffffffffffffffffffffffffffffffffff16611bfd836118f1565b73ffffffffffffffffffffffffffffffffffffffff1614159050919050565b6001811115611d3c57600073ffffffffffffffffffffffffffffffffffffffff168473ffffffffffffffffffffffffffffffffffffffff1614611cb05780600360008673ffffffffffffffffffffffffffffffffffffffff1673ffffffffffffffffffffffffffffffffffffffff1681526020019081526020016000206000828254611ca8919061354c565b925050819055505b600073ffffffffffffffffffffffffffffffffffffffff168373ffffffffffffffffffffffffffffffffffffffff1614611d3b5780600360008573ffffffffffffffffffffffffffffffffffffffff1673ffffffffffffffffffffffffffffffffffffffff1681526020019081526020016000206000828254611d339190613580565b925050819055505b5b50505050565b50505050565b611d52838361207d565b611d5f6000848484611da3565b611d9e576040517f08c379a0000000000000000000000000000000000000000000000000000000008152600401611d95906134fd565b60405180910390fd5b505050565b6000611dc48473ffffffffffffffffffffffffffffffffffffffff1661229a565b15611f1d578373ffffffffffffffffffffffffffffffffffffffff1663150b7a02611ded611484565b8786866040518563ffffffff1660e01b8152600401611e0f9493929190613609565b6020604051808303816000875af1925050508015611e4b57506040513d601f19601f82011682018060405250810190611e48919061366a565b60015b611ecd573d8060008114611e7b576040519150601f19603f3d011682016040523d82523d6000602084013e611e80565b606091505b506000815103611ec5576040517f08c379a0000000000000000000000000000000000000000000000000000000008152600401611ebc906134fd565b60405180910390fd5b805181602001fd5b63150b7a0260e01b7bffffffffffffffffffffffffffffffffffffffffffffffffffffffff1916817bffffffffffffffffffffffffffffffffffffffffffffffffffffffff191614915050611f22565b600190505b949350505050565b600080600090507a184f03e93ff9f4daa797ed6e38ed64bf6a1f0100000000000000008310611f88577a184f03e93ff9f4daa797ed6e38ed64bf6a1f0100000000000000008381611f7e57611f7d61351d565b5b0492506040810190505b6d04ee2d6d415b85acef81000000008310611fc5576d04ee2d6d415b85acef81000000008381611fbb57611fba61351d565b5b0492506020810190505b662386f26fc100008310611ff457662386f26fc100008381611fea57611fe961351d565b5b0492506010810190505b6305f5e100831061201d576305f5e10083816120135761201261351d565b5b0492506008810190505b61271083106120425761271083816120385761203761351d565b5b0492506004810190505b60648310612065576064838161205b5761205a61351d565b5b0492506002810190505b600a8310612074576001810190505b80915050919050565b600073ffffffffffffffffffffffffffffffffffffffff168273ffffffffffffffffffffffffffffffffffffffff16036120ec576040517f08c379a00000000000000000000000000000000000000000000000000000000081526004016120e3906136e3565b60405180910390fd5b6120f581611bdb565b15612135576040517f08c379a000000000000000000000000000000000000000000000000000000000815260040161212c9061374f565b60405180910390fd5b612143600083836001611c1c565b61214c81611bdb565b1561218c576040517f08c379a00000000000000000000000000000000000000000000000000000000081526004016121839061374f565b60405180910390fd5b6001600360008473ffffffffffffffffffffffffffffffffffffffff1673ffffffffffffffffffffffffffffffffffffffff16815260200190815260200160002060008282540192505081905550816002600083815260200190815260200160002060006101000a81548173ffffffffffffffffffffffffffffffffffffffff021916908373ffffffffffffffffffffffffffffffffffffffff160217905550808273ffffffffffffffffffffffffffffffffffffffff16600073ffffffffffffffffffffffffffffffffffffffff167fddf252ad1be2c89b69c2b068fc378daa952ba7f163c4a11628f55a4df523b3ef60405160405180910390a4612296600083836001611d42565b5050565b6000808273ffffffffffffffffffffffffffffffffffffffff163b119050919050565b6000604051905090565b600080fd5b600080fd5b60007fffffffff0000000000000000000000000000000000000000000000000000000082169050919050565b612306816122d1565b811461231157600080fd5b50565b600081359050612323816122fd565b92915050565b60006020828403121561233f5761233e6122c7565b5b600061234d84828501612314565b91505092915050565b60008115159050919050565b61236b81612356565b82525050565b60006020820190506123866000830184612362565b92915050565b600081519050919050565b600082825260208201905092915050565b60005b838110156123c65780820151818401526020810190506123ab565b60008484015250505050565b6000601f19601f8301169050919050565b60006123ee8261238c565b6123f88185612397565b93506124088185602086016123a8565b612411816123d2565b840191505092915050565b6000602082019050818103600083015261243681846123e3565b905092915050565b6000819050919050565b6124518161243e565b811461245c57600080fd5b50565b60008135905061246e81612448565b92915050565b60006020828403121561248a576124896122c7565b5b60006124988482850161245f565b91505092915050565b600073ffffffffffffffffffffffffffffffffffffffff82169050919050565b60006124cc826124a1565b9050919050565b6124dc816124c1565b82525050565b60006020820190506124f760008301846124d3565b92915050565b612506816124c1565b811461251157600080fd5b50565b600081359050612523816124fd565b92915050565b600080604083850312156125405761253f6122c7565b5b600061254e85828601612514565b925050602061255f8582860161245f565b9150509250929050565b600080600060608486031215612582576125816122c7565b5b600061259086828701612514565b93505060206125a186828701612514565b92505060406125b28682870161245f565b9150509250925092565b600081519050919050565b600082825260208201905092915050565b6000819050602082019050919050565b6125f18161243e565b82525050565b600082825260208201905092915050565b60006126138261238c565b61261d81856125f7565b935061262d8185602086016123a8565b612636816123d2565b840191505092915050565b61264a816124c1565b82525050565b600060608301600083015161266860008601826125e8565b50602083015184820360208601526126808282612608565b91505060408301516126956040860182612641565b508091505092915050565b60006126ac8383612650565b905092915050565b6000602082019050919050565b60006126cc826125bc565b6126d681856125c7565b9350836020820285016126e8856125d8565b8060005b85811015612724578484038952815161270585826126a0565b9450612710836126b4565b925060208a019950506001810190506126ec565b50829750879550505050505092915050565b6000602082019050818103600083015261275081846126c1565b905092915050565b600080fd5b600080fd5b600080fd5b60008083601f84011261277d5761277c612758565b5b8235905067ffffffffffffffff81111561279a5761279961275d565b5b6020830191508360018202830111156127b6576127b5612762565b5b9250929050565b600080602083850312156127d4576127d36122c7565b5b600083013567ffffffffffffffff8111156127f2576127f16122cc565b5b6127fe85828601612767565b92509250509250929050565b600080fd5b7f4e487b7100000000000000000000000000000000000000000000000000000000600052604160045260246000fd5b612847826123d2565b810181811067ffffffffffffffff821117156128665761286561280f565b5b80604052505050565b60006128796122bd565b9050612885828261283e565b919050565b600067ffffffffffffffff8211156128a5576128a461280f565b5b6128ae826123d2565b9050602081019050919050565b82818337600083830152505050565b60006128dd6128d88461288a565b61286f565b9050828152602081018484840111156128f9576128f861280a565b5b6129048482856128bb565b509392505050565b600082601f83011261292157612920612758565b5b81356129318482602086016128ca565b91505092915050565b6000602082840312156129505761294f6122c7565b5b600082013567ffffffffffffffff81111561296e5761296d6122cc565b5b61297a8482850161290c565b91505092915050565b61298c8161243e565b82525050565b60006060820190506129a76000830186612983565b81810360208301526129b981856123e3565b90506129c860408301846124d3565b949350505050565b6000602082840312156129e6576129e56122c7565b5b60006129f484828501612514565b91505092915050565b6000602082019050612a126000830184612983565b92915050565b612a2181612356565b8114612a2c57600080fd5b50565b600081359050612a3e81612a18565b92915050565b60008060408385031215612a5b57612a5a6122c7565b5b6000612a6985828601612514565b9250506020612a7a85828601612a2f565b9150509250929050565b600067ffffffffffffffff821115612a9f57612a9e61280f565b5b612aa8826123d2565b9050602081019050919050565b6000612ac8612ac384612a84565b61286f565b905082815260208101848484011115612ae457612ae361280a565b5b612aef8482856128bb565b509392505050565b600082601f830112612b0c57612b0b612758565b5b8135612b1c848260208601612ab5565b91505092915050565b60008060008060808587031215612b3f57612b3e6122c7565b5b6000612b4d87828801612514565b9450506020612b5e87828801612514565b9350506040612b6f8782880161245f565b925050606085013567ffffffffffffffff811115612b9057612b8f6122cc565b5b612b9c87828801612af7565b91505092959194509250565b60008060408385031215612bbf57612bbe6122c7565b5b6000612bcd85828601612514565b9250506020612bde85828601612514565b9150509250929050565b7f4e487b7100000000000000000000000000000000000000000000000000000000600052602260045260246000fd5b60006002820490506001821680612c2f57607f821691505b602082108103612c4257612c41612be8565b5b50919050565b7f4552433732313a20617070726f76616c20746f2063757272656e74206f776e6560008201527f7200000000000000000000000000000000000000000000000000000000000000602082015250565b6000612ca4602183612397565b9150612caf82612c48565b604082019050919050565b60006020820190508181036000830152612cd381612c97565b9050919050565b7f4552433732313a20617070726f76652063616c6c6572206973206e6f7420746f60008201527f6b656e206f776e6572206f7220617070726f76656420666f7220616c6c000000602082015250565b6000612d36603d83612397565b9150612d4182612cda565b604082019050919050565b60006020820190508181036000830152612d6581612d29565b9050919050565b7f4552433732313a2063616c6c6572206973206e6f7420746f6b656e206f776e6560008201527f72206f7220617070726f76656400000000000000000000000000000000000000602082015250565b6000612dc8602d83612397565b9150612dd382612d6c565b604082019050919050565b60006020820190508181036000830152612df781612dbb565b9050919050565b600081905092915050565b6000612e158385612dfe565b9350612e228385846128bb565b82840190509392505050565b6000612e3b828486612e09565b91508190509392505050565b7f20536f72727920746f6b656e20616c7265616479206578697374730000000000600082015250565b6000612e7d601b83612397565b9150612e8882612e47565b602082019050919050565b60006020820190508181036000830152612eac81612e70565b9050919050565b60008190508160005260206000209050919050565b60006020601f8301049050919050565b600082821b905092915050565b600060088302612f157fffffffffffffffffffffffffffffffffffffffffffffffffffffffffffffffff82612ed8565b612f1f8683612ed8565b95508019841693508086168417925050509392505050565b6000819050919050565b6000612f5c612f57612f528461243e565b612f37565b61243e565b9050919050565b6000819050919050565b612f7683612f41565b612f8a612f8282612f63565b848454612ee5565b825550505050565b600090565b612f9f612f92565b612faa818484612f6d565b505050565b5b81811015612fce57612fc3600082612f97565b600181019050612fb0565b5050565b601f82111561301357612fe481612eb3565b612fed84612ec8565b81016020851015612ffc578190505b61301061300885612ec8565b830182612faf565b50505b505050565b600082821c905092915050565b600061303660001984600802613018565b1980831691505092915050565b600061304f8383613025565b9150826002028217905092915050565b6130688261238c565b67ffffffffffffffff8111156130815761308061280f565b5b61308b8254612c17565b613096828285612fd2565b600060209050601f8311600181146130c957600084156130b7578287015190505b6130c18582613043565b865550613129565b601f1984166130d786612eb3565b60005b828110156130ff578489015182556001820191506020850194506020810190506130da565b8683101561311c5784890151613118601f891682613025565b8355505b6001600288020188555050505b505050505050565b7f4e487b7100000000000000000000000000000000000000000000000000000000600052601160045260246000fd5b600061316b8261243e565b91507fffffffffffffffffffffffffffffffffffffffffffffffffffffffffffffffff820361319d5761319c613131565b5b600182019050919050565b7f4552433732313a20696e76616c696420746f6b656e2049440000000000000000600082015250565b60006131de601883612397565b91506131e9826131a8565b602082019050919050565b6000602082019050818103600083015261320d816131d1565b9050919050565b7f4552433732313a2061646472657373207a65726f206973206e6f74206120766160008201527f6c6964206f776e65720000000000000000000000000000000000000000000000602082015250565b6000613270602983612397565b915061327b82613214565b604082019050919050565b6000602082019050818103600083015261329f81613263565b9050919050565b60006132b18261238c565b6132bb8185612dfe565b93506132cb8185602086016123a8565b80840191505092915050565b60006132e382856132a6565b91506132ef82846132a6565b91508190509392505050565b7f4552433732313a207472616e736665722066726f6d20696e636f72726563742060008201527f6f776e6572000000000000000000000000000000000000000000000000000000602082015250565b6000613357602583612397565b9150613362826132fb565b604082019050919050565b600060208201905081810360008301526133868161334a565b9050919050565b7f4552433732313a207472616e7366657220746f20746865207a65726f2061646460008201527f7265737300000000000000000000000000000000000000000000000000000000602082015250565b60006133e9602483612397565b91506133f48261338d565b604082019050919050565b60006020820190508181036000830152613418816133dc565b9050919050565b7f4552433732313a20617070726f766520746f2063616c6c657200000000000000600082015250565b6000613455601983612397565b91506134608261341f565b602082019050919050565b6000602082019050818103600083015261348481613448565b9050919050565b7f4552433732313a207472616e7366657220746f206e6f6e20455243373231526560008201527f63656976657220696d706c656d656e7465720000000000000000000000000000602082015250565b60006134e7603283612397565b91506134f28261348b565b604082019050919050565b60006020820190508181036000830152613516816134da565b9050919050565b7f4e487b7100000000000000000000000000000000000000000000000000000000600052601260045260246000fd5b60006135578261243e565b91506135628361243e565b925082820390508181111561357a57613579613131565b5b92915050565b600061358b8261243e565b91506135968361243e565b92508282019050808211156135ae576135ad613131565b5b92915050565b600081519050919050565b600082825260208201905092915050565b60006135db826135b4565b6135e581856135bf565b93506135f58185602086016123a8565b6135fe816123d2565b840191505092915050565b600060808201905061361e60008301876124d3565b61362b60208301866124d3565b6136386040830185612983565b818103606083015261364a81846135d0565b905095945050505050565b600081519050613664816122fd565b92915050565b6000602082840312156136805761367f6122c7565b5b600061368e84828501613655565b91505092915050565b7f4552433732313a206d696e7420746f20746865207a65726f2061646472657373600082015250565b60006136cd602083612397565b91506136d882613697565b602082019050919050565b600060208201905081810360008301526136fc816136c0565b9050919050565b7f4552433732313a20746f6b656e20616c7265616479206d696e74656400000000600082015250565b6000613739601c83612397565b915061374482613703565b602082019050919050565b600060208201905081810360008301526137688161372c565b905091905056fea26469706673582212202eb67c862f49f476a8afd946f3b1ac69a1016f813e1d970fa5120553bdd69d4064736f6c63430008110033",
  "immutableReferences": {},
  "source": "//SPDX-License-Identifier:MIT\r\n\r\npragma solidity ^0.8.17;\r\n\r\nimport \"@openzeppelin/contracts/token/ERC721/ERC721.sol\";\r\n\r\ncontract KoyaNft is ERC721 {\r\n\r\n    address public owner;\r\n    uint256 tokenId = 1; \r\n\r\n    struct Koya {\r\n        uint tokenId;\r\n        string tokenName;\r\n        address owner; \r\n    }\r\n\r\n    Koya[] public allTokens;\r\n\r\n    mapping(address => Koya[]) public tokenAddress;\r\n    mapping(string => bool) public tokenExists;\r\n\r\n    constructor() ERC721(\"KoyaNft\", \"KYN\") {\r\n\r\n        owner = msg.sender;\r\n\r\n    }\r\n\r\n    function getAllTokens() public view returns (Koya[] memory) {\r\n        return allTokens;\r\n    }\r\n\r\n    function getMyTokens() public view returns (Koya[] memory) {\r\n        return tokenAddress[msg.sender];\r\n    }\r\n\r\n    function mintToken(string calldata _tokenName) public payable {\r\n        require(!tokenExists[_tokenName], \" Sorry token already exists\");\r\n\r\n        _safeMint(msg.sender, tokenId);\r\n\r\n        allTokens.push(Koya(tokenId, _tokenName, msg.sender));\r\n\r\n        tokenAddress[msg.sender].push(Koya(tokenId,\r\n        _tokenName,\r\n        msg.sender));\r\n\r\n        tokenExists[_tokenName] = true;\r\n\r\n        tokenId++;\r\n    }\r\n}",
  "sourcePath": "C:\\Users\\Kolade\\Documents\\Work Space\\koya-Nft\\koya-nft-app\\contracts\\koyaNft.sol",
  "compiler": {
    "name": "solc",
    "version": "0.8.17+commit.8df45f5f.Emscripten.clang"
  },
  "schemaVersion": "3.4.10",
  "updatedAt": "2022-12-01T15:39:39.765Z",
  "devdoc": {
    "kind": "dev",
    "methods": {
      "approve(address,uint256)": {
        "details": "See {IERC721-approve}."
      },
      "balanceOf(address)": {
        "details": "See {IERC721-balanceOf}."
      },
      "getApproved(uint256)": {
        "details": "See {IERC721-getApproved}."
      },
      "isApprovedForAll(address,address)": {
        "details": "See {IERC721-isApprovedForAll}."
      },
      "name()": {
        "details": "See {IERC721Metadata-name}."
      },
      "ownerOf(uint256)": {
        "details": "See {IERC721-ownerOf}."
      },
      "safeTransferFrom(address,address,uint256)": {
        "details": "See {IERC721-safeTransferFrom}."
      },
      "safeTransferFrom(address,address,uint256,bytes)": {
        "details": "See {IERC721-safeTransferFrom}."
      },
      "setApprovalForAll(address,bool)": {
        "details": "See {IERC721-setApprovalForAll}."
      },
      "supportsInterface(bytes4)": {
        "details": "See {IERC165-supportsInterface}."
      },
      "symbol()": {
        "details": "See {IERC721Metadata-symbol}."
      },
      "tokenURI(uint256)": {
        "details": "See {IERC721Metadata-tokenURI}."
      },
      "transferFrom(address,address,uint256)": {
        "details": "See {IERC721-transferFrom}."
      }
    },
    "version": 1
  },
  "userdoc": {
    "kind": "user",
    "methods": {},
    "version": 1
  }
}